:100000000C942A000C9447000C9447000C94470071
:100010000C9447000C9447000C9447000C94470044
:100020000C9447000C9447000C9447000C94470034
:100030000C9447000C9447000C9447000C94470024
:100040000C9447000C9447000C9447000C94470014
:100050000C94470011241FBECFE5D8E0DEBFCDBF12
:1000600012E0A0E6B0E0E6E0FFE102C005900D92EC
:10007000AC3EB107D9F712E0ACEEB2E001C01D9280
:10008000AD3EB107E1F70E9425090C94810F0C9455
:100090000000EF92FF920F931F937B018C0120E0F1
:1000A00030E040E05FE40E94490388238CF0C801FF
:1000B000B70120E030E040E05FE40E94C1010E940F
:1000C000A9039B01AC01205030404040504806C07D
:1000D000C801B7010E94A9039B01AC01B901CA0183
:1000E0001F910F91FF90EF900895A0E0B0E0EBE733
:1000F000F0E00C94930CDC012B01FA019C919230FE
:1001000008F439C1EB018881823008F433C194309E
:1001100069F4843009F02FC111969C91119789815F
:10012000981709F428C1A3E5B1E025C1843009F48A
:1001300021C18230A9F4923009F01DC19A01AD01AC
:1001400088E0EA010990AE01E90109929E0181501F
:10015000C1F7E201898111969C918923818308C1AD
:10016000923009F407C112962D903C901397EB0141
:100170008A819B811496AD90BD90CD90DC901797AD
:10018000EC80FD800E811F819101281B390BB90184
:1001900037FF04C066277727621B730B6032710537
:1001A0000CF061C0121613066CF537014801062EDB
:1001B00004C096948794779467940A94D2F721E0C8
:1001C00030E040E050E004C0220F331F441F551FB1
:1001D0006A95D2F721503040404050402E213F21B7
:1001E00040235123211531054105510521F021E01E
:1001F00030E040E050E079018A01E628F72808293C
:1002000019293CC0232BD1F1260E371E350146019A
:10021000062E04C096948794779467940A94D2F734
:1002200021E030E040E050E004C0220F331F441FC3
:10023000551F6A95D2F721503040404050402A2146
:100240003B214C215D21211531054105510521F04E
:1002500021E030E040E050E059016A01A628B728CB
:10026000C828D9280BC0821593052CF01C01AA249C
:10027000BB24650103C0EE24FF24870111969C91E5
:10028000D20111968C91981709F445C0992339F041
:10029000A80197012A193B094C095D0906C0A6016E
:1002A00095012E193F09400B510B57FD08C01182D3
:1002B0003382228224833583468357831DC081E0A5
:1002C00081833382228288279927DC01821B930B4A
:1002D000A40BB50B84839583A683B7830DC0220F2F
:1002E000331F441F551F24833583468357838281E0
:1002F000938101979383828324813581468157813D
:10030000DA01C9010197A109B1098F5F9F4FAF4F72
:10031000BF4328F30BC0918333822282EA0CFB1C7B
:100320000C1D1D1DE482F5820683178383E0808304
:10033000248135814681578157FF1AC0C901AA27F8
:1003400097FDA095BA2F81709070A070B0705695EF
:10035000479537952795822B932BA42BB52B848318
:100360009583A683B7838281938101969383828349
:10037000DF0101C0D201CD01CDB7DEB7E2E10C94BF
:10038000AF0CA0E2B0E0E7ECF1E00C949F0C6983C5
:100390007A838B839C832D833E834F835887E9E048
:1003A000EE2EF12CEC0EFD1ECE010196B7010E943F
:1003B000D2048E010F5E1F4FCE010596B8010E9438
:1003C000D2048A8991E089278A8BC701B801AE01DE
:1003D000475E5F4F0E9475000E94FD03A096E6E015
:1003E0000C94BB0CA0E2B0E0E8EFF1E00C949F0CA1
:1003F00069837A838B839C832D833E834F835887C5
:10040000F9E0EF2EF12CEC0EFD1ECE010196B701A6
:100410000E94D2048E010F5E1F4FCE010596B801D7
:100420000E94D204C701B801AE01475E5F4F0E942F
:1004300075000E94FD03A096E6E00C94BB0CA0E2C0
:10044000B0E0E5E2F2E00C94930C69837A838B834D
:100450009C832D833E834F835887CE010196BE0136
:10046000675F7F4F0E94D204CE010596BE016F5E8A
:100470007F4F0E94D2049985923088F0898982301A
:10048000C8F0943019F4823051F404C0843029F457
:10049000923081F483E591E0C6C0923049F420E0C7
:1004A0009A858A89981321E02A87CE010996BBC0D4
:1004B000823049F420E09A858A89981321E02A8BBA
:1004C000CE014196B0C02D843E844F8458886D88FB
:1004D0007E888F88988CEE24FF248701AA24BB2471
:1004E000650140E050E060E070E0E0E0F0E0C10174
:1004F00081709070892BE9F0E60CF71C081D191D1E
:100500009A01AB012A0D3B1D4C1D5D1D80E090E062
:10051000A0E0B0E0E614F7040805190520F481E036
:1005200090E0A0E0B0E0BA01A901480F591F6A1F8E
:100530007B1FAA0CBB1CCC1CDD1C97FE08C081E0F5
:1005400090E0A0E0B0E0A82AB92ACA2ADB2A3196B6
:10055000E032F10549F0660C771C881C991C569412
:10056000479437942794C3CFFA85EA892B893C892D
:100570008B859C85280F391F2E5F3F4F17C0CA01FE
:1005800081709070892B61F016950795F794E79428
:1005900080E090E0A0E0B0E8E82AF92A0A2B1B2BC3
:1005A00076956795579547952F5F3F4F77FDE7CF36
:1005B0000CC0440F551F661F771F17FD4160EE0CDE
:1005C000FF1C001F111F21503040403090E05907A0
:1005D00090E0690790E4790760F32B8F3C8FDB0193
:1005E000CA018F779070A070B07080349105A1051A
:1005F000B10561F447FD0AC0E114F10401051105DC
:1006000029F0405C5F4F6F4F7F4F40781A8EFE1786
:1006100011F081E08A8F4D8F5E8F6F8F78A383E01A
:10062000898FCE0149960E94FD03A096E2E10C94C9
:10063000AF0CA8E1B0E0EFE1F3E00C949F0C69830C
:100640007A838B839C832D833E834F83588789E0F5
:10065000E82EF12CEC0EFD1ECE010196B7010E9492
:10066000D2048E010F5E1F4FCE010596B8010E9485
:10067000D2048985823040F08989823028F0C70110
:10068000B8010E944A0501C08FEF6896E6E00C941D
:10069000BB0CA8E1B0E0EFE4F3E00C949F0C69839D
:1006A0007A838B839C832D833E834F83588789E095
:1006B000E82EF12CEC0EFD1ECE010196B7010E9432
:1006C000D2048E010F5E1F4FCE010596B8010E9425
:1006D000D2048985823040F08989823028F0C701B0
:1006E000B8010E944A0501C08FEF6896E6E00C94BD
:1006F000BB0CA8E1B0E0EFE7F3E00C949F0C69833A
:100700007A838B839C832D833E834F83588789E034
:10071000E82EF12CEC0EFD1ECE010196B7010E94D1
:10072000D2048E010F5E1F4FCE010596B8010E94C4
:10073000D2048985823040F08989823028F0C7014F
:10074000B8010E944A0501C081E06896E6E00C9479
:10075000BB0CACE0B0E0EFEAF3E00C94A30C6983CF
:100760007A838B839C83CE010196BE016B5F7F4FA2
:100770000E94D2048D81823061F1823050F1843048
:1007800021F48E81882351F12EC02F81388537FDC9
:1007900020C06E812F3131051CF06623F9F023C093
:1007A0008EE190E0821B930B29853A854B855C8511
:1007B00004C056954795379527958A95D2F76623B5
:1007C000B1F050954095309521953F4F4F4F5F4F79
:1007D0000EC020E030E040E050E009C02FEF3FEFD6
:1007E0004FEF5FE704C020E030E040E050E8B9019F
:1007F000CA012C96E2E00C94BF0CDF92EF92FF92BC
:100800000F931F93FC01E480F58006811781D1804E
:100810008081823048F480E090E0A0E1B0E0E82AF6
:10082000F92A0A2B1B2BA5C0843009F49FC0823003
:1008300021F4EE24FF24870105C0E114F104010531
:10084000110519F4E0E0F0E096C0628173819FEF3A
:10085000623879070CF05BC022E83FEF261B370BAC
:100860002A3131052CF020E030E040E050E02AC091
:10087000B801A701022E04C0769567955795479554
:100880000A94D2F781E090E0A0E0B0E004C0880FC5
:10089000991FAA1FBB1F2A95D2F70197A109B10979
:1008A0008E219F21A023B1230097A105B10521F03E
:1008B00081E090E0A0E0B0E09A01AB01282B392B59
:1008C0004A2B5B2BDA01C9018F779070A070B07052
:1008D00080349105A105B10539F427FF09C0205CDA
:1008E0003F4F4F4F5F4F04C0215C3F4F4F4F5F4F13
:1008F000E0E0F0E02030A0E03A07A0E04A07A0E402
:100900005A0710F0E1E0F0E079018A0127C0603871
:10091000710564F5FB01E158FF4FD801C7018F77DE
:100920009070A070B07080349105A105B10539F4C4
:10093000E7FE0DC080E490E0A0E0B0E004C08FE3EB
:1009400090E0A0E0B0E0E80EF91E0A1F1B1F17FFA1
:1009500005C016950795F794E794319687E01695AC
:100960000795F794E7948A95D1F705C0EE24FF2404
:100970008701EFEFF0E06E2F679566276795902F60
:100980009F77D794DD24D7948E2F8695492F462BB9
:10099000582F5D29B701CA011F910F91FF90EF9069
:1009A000DF900895FC01DB01408151812281622F9B
:1009B0006F7770E0221F2227221F9381892F880FD3
:1009C000822B282F30E0991F9927991F11969C930D
:1009D000119721153105A9F54115510561057105DD
:1009E00011F482E037C082E89FEF13969C938E93B8
:1009F00012979A01AB0167E0220F331F441F551F66
:100A00006A95D1F783E08C930DC0220F331F441FEA
:100A1000551F12968D919C911397019713969C9355
:100A20008E931297203080E0380780E0480780E4FA
:100A3000580758F314962D933D934D935C93179755
:100A400008952F3F310579F4411551056105710570
:100A500019F484E08C93089564FF03C081E08C93C3
:100A600012C01C9210C02F57304013963C932E9307
:100A7000129783E08C9387E0440F551F661F771F02
:100A80008A95D1F7706414964D935D936D937C9322
:100A9000179708951F93DC01FB019C91923008F495
:100AA00047C08081823008F443C0943051F41196DD
:100AB0001C91843099F58181682F70E0611B710968
:100AC0003FC0843021F0923031F48230B9F181811D
:100AD000882389F12DC011961C9111978230F1F075
:100AE00081811817D9F412962D913C911397828128
:100AF00093818217930794F028173907BCF0149656
:100B00008D919D910D90BC91A02D248135814681C0
:100B10005781281739074A075B0718F4112341F05A
:100B20000AC082179307A407B50740F4112319F0F0
:100B300061E070E005C06FEF7FEF02C060E070E041
:100B4000CB011F910895DF93CF93CDB7DEB7A4E219
:100B5000B0E0E4E2F0E083818F7713968C93A4E217
:100B6000B0E0E4E2F0E08381806413968C93A4E229
:100B7000B0E0E4E2F0E082818E7F12968C93A4E2F2
:100B8000B0E0E4E2F0E08281826012968C93A4E20D
:100B9000B0E0E4E2F0E08281846012968C93A4E2FB
:100BA000B0E0E4E2F0E083818F7D13968C9313979D
:100BB000CF91DF910895DF93CF93CDB7DEB7A4E255
:100BC000B0E0E4E2F0E08281806812968C931297A4
:100BD000CF91DF910895DF93CF93CDB7DEB7A4E235
:100BE000B0E0E4E2F0E082818F7712968C93129766
:100BF000CF91DF910895DF93CF9300D00F92CDB7BF
:100C0000DEB789838981282F30E03B832A838A815C
:100C10009B818430910509F4EFC02A813B81253006
:100C20003105ECF48A819B818130910509F466C01D
:100C30002A813B81223031052CF48A819B810097E7
:100C400099F1D4C12A813B812230310509F480C059
:100C50008A819B818330910509F4A4C0C7C12A8190
:100C60003B812730310509F445C18A819B81883059
:100C700091056CF42A813B812530310509F4E6C0E9
:100C80008A819B818630910509F40AC1AFC12A810E
:100C90003B812830310509F457C18A819B81893015
:100CA000910509F47BC1A2C1A4E2B0E0E4E2F0E066
:100CB00083818E7F13968C93A4E2B0E0E4E2F0E0AF
:100CC00083818D7F13968C93A4E2B0E0E4E2F0E0A0
:100CD00083818B7F13968C93A4E2B0E0E4E2F0E092
:100CE0008381877F13968C93A4E2B0E0E4E2F0E086
:100CF00083818F7E13968C93139778C1A4E2B0E022
:100D0000E4E2F0E08381816013968C93A4E2B0E08A
:100D1000E4E2F0E083818D7F13968C93A4E2B0E04F
:100D2000E4E2F0E083818B7F13968C93A4E2B0E041
:100D3000E4E2F0E08381877F13968C93A4E2B0E035
:100D4000E4E2F0E083818F7E13968C9313974EC17B
:100D5000A4E2B0E0E4E2F0E083818E7F13968C930E
:100D6000A4E2B0E0E4E2F0E08381826013968C9329
:100D7000A4E2B0E0E4E2F0E083818B7F13968C93F1
:100D8000A4E2B0E0E4E2F0E08381877F13968C93E5
:100D9000A4E2B0E0E4E2F0E083818F7E13968C93CE
:100DA000139724C1A4E2B0E0E4E2F0E08381816023
:100DB00013968C93A4E2B0E0E4E2F0E083818260D9
:100DC00013968C93A4E2B0E0E4E2F0E083818B7FA1
:100DD00013968C93A4E2B0E0E4E2F0E08381877F95
:100DE00013968C93A4E2B0E0E4E2F0E083818F7E7E
:100DF00013968C931397FAC0A4E2B0E0E4E2F0E01B
:100E000083818E7F13968C93A4E2B0E0E4E2F0E05D
:100E100083818D7F13968C93A4E2B0E0E4E2F0E04E
:100E20008381846013968C93A4E2B0E0E4E2F0E066
:100E30008381877F13968C93A4E2B0E0E4E2F0E034
:100E400083818F7E13968C931397D0C0A4E2B0E079
:100E5000E4E2F0E08381816013968C93A4E2B0E039
:100E6000E4E2F0E083818D7F13968C93A4E2B0E0FE
:100E7000E4E2F0E08381846013968C93A4E2B0E016
:100E8000E4E2F0E08381877F13968C93A4E2B0E0E4
:100E9000E4E2F0E083818F7E13968C931397A6C0D3
:100EA000A4E2B0E0E4E2F0E083818E7F13968C93BD
:100EB000A4E2B0E0E4E2F0E08381826013968C93D8
:100EC000A4E2B0E0E4E2F0E08381846013968C93C6
:100ED000A4E2B0E0E4E2F0E08381877F13968C9394
:100EE000A4E2B0E0E4E2F0E083818F7E13968C937D
:100EF00013977CC0A4E2B0E0E4E2F0E0838181607B
:100F000013968C93A4E2B0E0E4E2F0E08381826087
:100F100013968C93A4E2B0E0E4E2F0E08381846075
:100F200013968C93A4E2B0E0E4E2F0E08381877F43
:100F300013968C93A4E2B0E0E4E2F0E083818F7E2C
:100F400013968C93139752C0A4E2B0E0E4E2F0E071
:100F50008381816013968C93A4E2B0E0E4E2F0E038
:100F600083818D7F13968C93A4E2B0E0E4E2F0E0FD
:100F700083818B7F13968C93A4E2B0E0E4E2F0E0EF
:100F80008381886013968C93A4E2B0E0E4E2F0E001
:100F90008381806113968C93139728C0A4E2B0E0FC
:100FA000E4E2F0E083818E7F13968C93A4E2B0E0BC
:100FB000E4E2F0E08381826013968C93A4E2B0E0D7
:100FC000E4E2F0E083818B7F13968C93A4E2B0E09F
:100FD000E4E2F0E08381877F13968C93A4E2B0E093
:100FE000E4E2F0E08381806113968C93A4E2B0E0A8
:100FF000E4E2F0E08281806412968C931297E4E23E
:10100000F0E0828182958F70882F90E081709070DF
:101010000097A9F3A4E2B0E0E4E2F0E0828180610D
:1010200012968C931297E4E2F0E0808191810F9008
:101030000F900F90CF91DF910895DF93CF9300D061
:10104000CDB7DEB79A83898389819A81009761F051
:10105000A8E3B0E0E8E3F0E0808181608C9380E673
:1010600090E00E94260C0BC0A8E3B0E0E8E3F0E0BB
:1010700080818E7F8C938DE690E00E94260C0F90ED
:101080000F90CF91DF910895DF93CF9300D0CDB72C
:10109000DEB79A83898389819A81009761F0A8E3FA
:1010A000B0E0E8E3F0E0808182608C938BE790E031
:1010B0000E94260C0BC0A8E3B0E0E8E3F0E08081DA
:1010C0008D7F8C938DE890E00E94260C0F900F90FE
:1010D000CF91DF910895DF93CF93CDB7DEB7A8E32B
:1010E000B0E0E8E3F0E0808184608C93CF91DF9101
:1010F0000895DF93CF93CDB7DEB728970FB6F89456
:10110000DEBF0FBECDBF9C838B837E836D831A822F
:1011100019823BC089819A81880F991F880F991F76
:10112000880F991F9C01220F331F220F331F820F3C
:10113000931F855A9E4F2B813C81B9010E94CA0C96
:101140000097F1F489819A81880F991F880F991F60
:10115000880F991F9C01220F331F220F331F820F0C
:10116000931F4496855A9E4F2D813E81B9010E945E
:10117000CA0C009729F481E090E098878F830DC016
:1011800089819A8101969A83898389819A818A309B
:1011900091050CF4BFCF18861F828F819885289601
:1011A0000FB6F894DEBF0FBECDBFCF91DF9108958B
:1011B000DF93CF9300D0CDB7DEB79A838983EEE378
:1011C000F0E089819A8191838083ACE3B0E0ECE325
:1011D000F0E0808181608C93EDE3F0E080810F90FE
:1011E0000F90CF91DF910895DF93CF9300D00F92AE
:1011F000CDB7DEB79A8389836B83ECE3F0E080811F
:101200008695882F90E0817090708823B1F7EEE387
:10121000F0E089819A8191838083EDE3F0E08B8116
:101220008083ACE3B0E0ECE3F0E0808184608C93F9
:10123000ACE3B0E0ECE3F0E0808182608C930F904F
:101240000F900F90CF91DF910895DF93CF93CDB79B
:10125000DEB7C054D0400FB6F894DEBF0FBECDBF8E
:101260001E8A1D8A1A8A198AAAE3B0E0EAE3F0E02E
:1012700080818E7F8C930E94A3050E94DB05A1E3F1
:10128000B0E0E1E3F0E0808180688C930E94490B3C
:101290000E94910BE7E3F0E087E0808380E090E03C
:1012A000A8ECB3E48B879C87AD87BE876B857C8574
:1012B0008D859E8520E030E04AE755E40E941F02BC
:1012C000DC01CB018F839887A987BA876F817885E6
:1012D00089859A8520E030E040E85FE30E94790349
:1012E00088232CF481E090E09E838D833FC06F8142
:1012F000788589859A8520E03FEF4FE757E40E9483
:10130000190318164CF56B857C858D859E8520E02C
:1013100030E040E251E40E941F02DC01CB01BC013D
:10132000CD010E944900DC01CB019E838D830FC05B
:1013300080E991E09C838B838B819C810197F1F7FD
:101340009C838B838D819E8101979E838D838D816C
:101350009E81009769F714C06F81788589859A8589
:101360000E944900DC01CB019E838D838D819E818B
:101370009A83898389819A810197F1F79A83898376
:1013800080EA90E00E94260C80E00E94FB059E8B84
:101390008D8B8D899E89CC01A0E0B0E024EF31E0F7
:1013A00040E050E0BC01CD010E94600CDC01CB01AB
:1013B000072E7AE0B695A795979587957A95D1F7F8
:1013C000702D9C8B8B8B87EA90E00E94EE0A8B89B4
:1013D0009C890E940B0B8AEA90E00E94EE0A8B899E
:1013E0009C898A319105E0F02B893C8984E692E062
:1013F000AC01249FC001259F900D349F900D1124B6
:10140000845C9B432AE030E0B9010E947F0CCB0151
:10141000888B88890E945E0B88890E945E0B03C0BE
:1014200080E00E945E0B8EEA90E00E94260CCE01C6
:10143000479664E10E949A0A8FEB90E00E94260C86
:10144000CE018B9664E10E949A0ACE0147969E01D6
:10145000255D3F4FB9010E947908009709F456C0F5
:1014600080ED90E00E94260C1A8A198A83EE90E0A3
:101470000E94260C8DE291E00E94EE0A0E94100C60
:101480008F878F85282F30E021963FAF2EAF219791
:1014900021964EAD5FAD219741335105F1F0219674
:1014A0008EAD9FAD21978233910544F421962EADE8
:1014B0003FAD219720333105A9F023C021964EADD1
:1014C0005FAD21974233510591F021968EAD9FADCE
:1014D00021978333910581F014C081E090E00E9450
:1014E0001D08DCCE80E090E00E941D08D7CE81E090
:1014F00090E00E944408D2CE80E090E00E94440830
:10150000CDCE8FE291E00E94260CC8CE89899A89BF
:1015100001969A8B898B81E491E00E94260C89893F
:101520009A89833091050CF4B9CE0E946B081A8A0F
:10153000198AB4CEDF93CF9300D000D00F92CDB7ED
:10154000DEB79C838B836D831A8216C00E94100CB9
:10155000898389818A30D1F089818D30B9F08A817F
:10156000282F30E08B819C81FC01E20FF31F8981E1
:1015700080838A818F5F8A838A81282F30E08D81E2
:10158000882F90E001972817390704F38A81282FC4
:1015900030E08B819C81FC01E20FF31F10820F90E1
:1015A0000F900F900F900F90CF91DF910895DF93E0
:1015B000CF930F92CDB7DEB78983EBE2F0E0808165
:1015C000882F90E0807290700097B9F3ECE2F0E021
:1015D000898180830F90CF91DF910895DF93CF931E
:1015E00000D0CDB7DEB79A8389830BC0E981FA8139
:1015F000208189819A8101969A838983822F0E9412
:10160000D70AE981FA818081882381F70F900F90B2
:10161000CF91DF910895DF93CF93CDB7DEB72C97AD
:101620000FB6F894DEBF0FBECDBF9C878B878DB7FA
:101630009EB708970FB6F8949EBF0FBE8DBFEDB74B
:10164000FEB73196CE010196918380838AE090E0C7
:101650009383828380E591E0958384838B859C8549
:10166000978386830E94D30C8DB79EB708960FB6DA
:10167000F8949EBF0FBE8DBFCE0101960E94EE0A68
:101680002C960FB6F894DEBF0FBECDBFCF91DF9181
:101690000895DF93CF93CDB7DEB7A1E3B0E0E1E3E8
:1016A000F0E0808180688C93E5E4F0E081E680835F
:1016B000E3E4F0E01082CF91DF910895DF93CF93C0
:1016C0000F92CDB7DEB78983E3E4F0E089818083B0
:1016D00089818093EC020F90CF91DF910895DF9381
:1016E000CF9300D0CDB7DEB79A83898349815A81E1
:1016F000CA019C01220F331FC9019695982F882794
:1017000097958795821B930B840F951F2FEF33E0DE
:10171000B9010E947F0CCB010F900F90CF91DF9108
:101720000895DF93CF930F92CDB7DEB71982AAE267
:10173000B0E0EAE2F0E0808180688C93AAE2B0E059
:10174000EAE2F0E0808180628C93AAE2B0E0EAE213
:10175000F0E080818B7F8C93898180688983898187
:101760008260898389818460898389818F7B898371
:1017700089818F7E898389818F7D89838981877F14
:101780008983E0E4F0E089818083E9E2F0E083E3AB
:101790008083AAE2B0E0EAE2F0E0808180618C938D
:1017A000AAE2B0E0EAE2F0E0808188608C930F90DA
:1017B000CF91DF910895DF93CF930F92CDB7DEB72E
:1017C0008983EBE2F0E08081829586958770882F8F
:1017D00090E0817090700097A1F3ABE2B0E0EBE293
:1017E000F0E0808180628C93ECE2F0E0898180837C
:1017F000EBE2F0E080818295869586958370882F54
:1018000090E081709070009799F3ABE2B0E0EBE26A
:10181000F0E0808180648C930F90CF91DF910895E8
:10182000DF93CF93CDB7DEB7EBE2F0E08081882382
:10183000DCF7ABE2B0E0EBE2F0E0808180688C9313
:10184000ECE2F0E08081CF91DF910895DF93CF93B8
:1018500000D000D000D0CDB7DEB79E838D83198233
:101860001A821B821C8219821A821B821C8215C05A
:1018700029813A818D819E81FC01E20FF31F8081D5
:101880000E94DB0B89819A81AB81BC810196A11DED
:10189000B11D89839A83AB83BC8329813A818D8171
:1018A0009E81FC01E20FF31F8081882309F72696B1
:1018B0000FB6F894DEBF0FBECDBFCF91DF91089574
:1018C000629FD001739FF001829FE00DF11D649F24
:1018D000E00DF11D929FF00D839FF00D749FF00DB0
:1018E000659FF00D9927729FB00DE11DF91F639F51
:1018F000B00DE11DF91FBD01CF0111240895AA1BF0
:10190000BB1B51E107C0AA1FBB1FA617B70710F0EA
:10191000A61BB70B881F991F5A95A9F7809590951C
:10192000BC01CD0108952F923F924F925F926F922A
:101930007F928F929F92AF92BF92CF92DF92EF925F
:10194000FF920F931F93CF93DF93CDB7DEB7CA1BE0
:10195000DB0B0FB6F894DEBF0FBECDBF09942A880B
:10196000398848885F846E847D848C849B84AA84B3
:10197000B984C884DF80EE80FD800C811B81AA8140
:10198000B981CE0FD11D0FB6F894DEBF0FBECDBF0B
:10199000ED010895FB01DC018D910190801901108A
:1019A000D9F3990B0895AEE0B0E0E9EDFCE00C94BA
:1019B000A10C0D891E898F89988D97FF02C080E048
:1019C00090E801979E838D831A83098386E08C8338
:1019D0009E01255E3F4FCE010196698D7A8DA9014A
:1019E0000E94040D4D815E8157FD0AC02F8138850C
:1019F000421753070CF49A01020F131FF8011082CB
:101A00002E96E4E00C94BD0CABE0B0E0EAE0FDE023
:101A10000C94930C3C012B015A01FC011782168295
:101A2000838181FD03C06FEF7FEFC6C19AE0892EED
:101A30001E010894211C311CF3012381F20123FDB6
:101A4000859123FF81912F01882309F4B2C185324A
:101A500039F423FD859123FF81912F01853229F4EB
:101A600090E0B3010E94F70EE7CF982FFF24EE24F9
:101A70009924FFE1FF15D0F09B3269F09C3228F4E5
:101A8000903259F0933291F40EC09D3249F0903368
:101A900069F441E024C052E0F52A84E0F82A28C025
:101AA00098E0F92A25C0E0E1FE2A22C0F7FC29C00F
:101AB000892F80538A3070F4F6FE05C0989C902CD4
:101AC0001124980E15C0E89CE02C1124E80EF0E2D9
:101AD000FF2A0EC09E3229F4F6FC6BC140E4F42AC2
:101AE00007C09C3619F450E8F52A02C0983649F42C
:101AF000F20123FD959123FF91912F01992309F084
:101B0000B8CF892F8554833018F08052833038F451
:101B100044E050E0A40EB51E5FE359830FC0933636
:101B200031F0933779F0933509F056C020C0F501B4
:101B30008081898342E050E0A40EB51E610101E07E
:101B400010E012C0F501C080D180F6FC03C06FEF39
:101B50007FEF02C0692D70E042E050E0A40EB51E98
:101B6000C6010E94EC0E8C015FE7F52214C0F5015E
:101B7000C080D180F6FC03C06FEF7FEF02C0692DFB
:101B800070E042E050E0A40EB51EC6010E94E10ED6
:101B90008C0150E8F52AF3FE07C01AC080E290E0FD
:101BA000B3010E94F70EEA948E2D90E008171907F2
:101BB000A8F30EC0F601F7FC8591F7FE81916F0145
:101BC00090E0B3010E94F70EE110EA94015010403A
:101BD0000115110579F7EAC0943611F0993669F5C7
:101BE000F7FE08C0F501208131814281538184E0F4
:101BF00090E00AC0F501808191819C01442737FD66
:101C00004095542F82E090E0A80EB91E9FE6F9227D
:101C100057FF09C050954095309521953F4F4F4F44
:101C20005F4FE0E8FE2ACA01B901A1012AE030E0D5
:101C30000E94230FD82ED21840C0953729F41F2DAB
:101C40001F7E2AE030E01DC01F2D197F9F3661F0F6
:101C5000903720F4983509F0ACC00FC0903739F0B8
:101C6000983709F0A6C004C028E030E00AC010612F
:101C700014FD146020E130E004C014FD166020E182
:101C800032E017FF08C0F501608171818281938184
:101C900044E050E008C0F50180819181BC0180E002
:101CA00090E042E050E0A40EB51EA1010E94230F77
:101CB000D82ED2188FE7F82EF122F6FE0BC05EEF79
:101CC000F522D91438F4F4FE07C0F2FC05C08FEEFB
:101CD000F82202C01D2D01C0192DF4FE0DC0FE0119
:101CE000ED0DF11D8081803319F499EEF92208C0C1
:101CF0001F5FF2FE05C003C08F2D867809F01F5FBD
:101D00000F2DF3FC14C0F0FE0FC01E1510F09D2C1B
:101D10000BC09D2C9E0C911A1E2D06C080E290E0F7
:101D2000B3010E94F70E1F5F1E15C0F304C01E15FD
:101D300010F4E11A01C0EE2404FF0FC080E390E02C
:101D4000B3010E94F70E02FF1DC001FD03C088E72A
:101D500090E00EC088E590E00BC0802F867891F06F
:101D600001FF02C08BE201C080E2F7FC8DE290E04F
:101D7000B3010E94F70E06C080E390E0B3010E9419
:101D8000F70E9A94D914C0F3DA94F101ED0DF11D18
:101D9000808190E0B3010E94F70EDD20A9F706C014
:101DA00080E290E0B3010E94F70EEA94EE20C1F7C2
:101DB00043CEF30166817781CB012B96E2E10C944F
:101DC000AF0CFC010590615070400110D8F7809570
:101DD00090958E0F9F1F0895FC01615070400190F7
:101DE0000110D8F7809590958E0F9F1F08950F933F
:101DF0001F93CF93DF938C01EB018B8181FF1BC07D
:101E000082FF0DC02E813F818C819D81281739076B
:101E100064F4E881F9810193F983E88306C0E885D9
:101E2000F985802F0995892B31F48E819F81019648
:101E30009F838E8302C00FEF1FEFC801DF91CF9108
:101E40001F910F910895FA01AA27283051F12031EE
:101E500081F1E8946F936E7F6E5F7F4F8F4F9F4F3E
:101E6000AF4FB1E03ED0B4E03CD0670F781F891F80
:101E70009A1FA11D680F791F8A1F911DA11D6A0F4E
:101E8000711D811D911DA11D20D009F468943F9101
:101E90002AE0269F11243019305D3193DEF6CF0100
:101EA0000895462F4770405D4193B3E00FD0C9F7C6
:101EB000F6CF462F4F70405D4A3318F0495D31FD33
:101EC0004052419302D0A9F7EACFB4E0A695979586
:101ED000879577956795BA95C9F70097610571055C
:101EE00008959B01AC010A2E0694579547953795A6
:101EF0002795BA95C9F7620F731F841F951FA01D00
:061F00000895F894FFCFE4
:101F06006C69676874206973206F6E20006C69675E
:101F16006874206973206F666620007468652064A3
:101F26006F6F72206973206F70656E20007468652C
:101F360020646F6F7220697320636C6F7365640031
:101F460074656D703A20000D0A00250D0A00456E75
:101F560074657220557365726E616D653A20004531
:101F66006E7465722050617373776F72643A2000E5
:101F76004C6F67696E205375636365737366756C22
:101F86000D0A00456E74657220436F6D6D616E6457
:101F96002028313A204C69676874204F4E2C203037
:101FA6003A204C69676874204F46462C20323A2006
:101FB6004F70656E20446F6F722C20333A20436C4D
:101FC6006F736520446F6F7229200D0A000A00495D
:101FD6006E76616C696420436F6D6D616E640D0A87
:101FE600004C6F67696E204661696C65640D0A0076
:101FF6002575000000000000000000757365723151
:10200600000000000000000000000000000000705A
:10201600617373776F726431000000000000000086
:1020260000000075736572320000000000000000B9
:102036000000000000000070617373776F726432F5
:10204600000000000000000000000000000000008A
:10205600000000000000000000000000000000007A
:10206600000000000000000000000000000000006A
:10207600000000000000000000000000000000005A
:10208600000000000000000000000000000000004A
:10209600000000000000000000000000000000003A
:1020A600000000000000000000000000000000002A
:1020B600000000000000000000000000000000001A
:1020C600000000000000000000000000000000000A
:1020D60000000000000000000000000000000000FA
:1020E60000000000000000000000000000000000EA
:1020F60000000000000000000000000000000000DA
:1021060000000000000000000000000000000000C9
:1021160000000000000000000000000000000000B9
:1021260000000000000000000000000000000000A9
:102136000000000000000000000000000000000099
:102146000000000000000000000000000000000089
:102156000000000000000000000000000000000079
:102166000000000000000000000000000000000069
:102176000000000000000000000000000000000059
:0C2186000000000000000000000000004D
:00000001FF
